S01200007365647274666A6E6D6B2E73726563DA
S214400000780800203D014000390140003901400099
S214400010390140003901400039014000000000002D
S2144000200000000000000000000000003901400011
S214400030390140000000000039014000390140000D
S2144000403901400039014000390140003901400083
S21440005039014000390140003901400000000000ED
S21440006039014000390140000000000039014000DD
S2144000703901400039014000390140003901400053
S2144000800000000000000000390140003901400037
S2144000903901400039014000390140003901400033
S2144000A03901400039014000390140003901400023
S2144000B03901400039014000390140003901400013
S2144000C039014000390140003901400010B5054C67
S2144000D0237833B9044B13B10448AFF300800123AF
S2144000E0237010BD2C04002000000000B008400023
S2144000F00C4B43B10C480D4910B5AFF300800C488B
S214400100036823B910BD0A48036833B97047094BE2
S214400110002BF7D0BDE810401847064B002BF5D013
S214400120184700BF00000000B00840003004002020
S214400130B008400000000000FEE7000008B5174B7E
S214400140174A9A4210D0174B144A9A420CD2013B97
S2144001509B1A23F0030304331344114951F8040B4C
S21440016042F8040B9A42F9D10F4B104A9A420AD2EF
S214400170013B9B1A23F0030304331344002142F847
S214400180041B9342FBD10A4A0A4B23F07F03936039
S214400190094B9847094B9847FEE700BF00000020F0
S2144001A0B00840002C040020740400202C040020DA
S2144001B000ED00E00000400019074000D10140007B
S2144001C04FF48072014B1A60704700BF000A0E4021
S2144001D008B5064B9847064B9847064B9847064B3C
S2144001E09847064B9847064CA047FDE7C10140009C
S2144001F0CD044000A1064000CD0540006D03400000
S2144002003D03400038B50546C0F30740064CA047BE
S214400210C5F30720A047E8B2A0470020A047034BFD
S2144002209847C0B238BD00BF55064000850640001E
S21440023070B506460D46C0F3064040F08000084CB8
S214400240A047C6F3062040F08000A047F0B2A04783
S2144002502846A047280A40F08000A04770BD00BF4F
S2144002605506400070B506460D46C0F3064040F0C1
S21440027080000D4CA047C6F3062040F08000A04703
S214400280F0B2A047E8B2A047C5F3062040F0800091
S214400290A047C5F3064040F08000A047280E40F037
S2144002A08000A04770BD00BF5506400070B50546AB
S2144002B00E46C0F3064040F08000064CA047C5F30B
S2144002C0062040F08000A047E8B2A0473046A0474E
S2144002D070BD00BF55064000044B1A6810441860B5
S2144002E01A68C2F30B021A60704700BF4804002029
S2144002F070B506460E4B1D6805F54215C5F306401B
S21440030040F080000B4CA047C5F30720A047E8B25A
S214400310A047F0B2A047C6F30720A047C6F3074061
S214400320A047300EA0470420034B984770BD00BF3F
S2144003304804002055064000D902400008B56FF03A
S214400340CE00034B984740F6B830024B984708BD5E
S214400350F1024000ED06400010B5034CA0470020D7
S214400360A0470020A04710BD5506400070B53A4A49
S214400370136843F0020313601032136843F002031D
S21440038013602032136843F0020313600620334C98
S214400390A047334A136843F0020313601520A04772
S2144003A04820304CA0470020A0474FF448712E48C4
S2144003B02E4CA0474FF484612D48A0472E212D484F
S2144003C0A04700212C48A0470A212C48A0474FF4BC
S2144003D0F0712B48A04740F20D212A48A04717212C
S2144003E02948A04700212948A0470A212848A04775
S2144003F000212848284CA04701212848A047012131
S2144004002748A04701212748A04702212648A04761
S2144004104FF000714FF44010244DA847244925481A
S214400420A84700212448A84702212448A047244D35
S2144004302846244EB04760F07F01C9B22846A04700
S21440044004352846B04760F07F01C9B22846A04729
S21440045005211D48A04770BD00120E40ED06400025
S21440046034120E4059034000342030003102400020
S2144004702C20300030203000382030003C20300027
S2144004804820300040203000442030004C203000CF
S2144004905020300064203000AD0240006C20300018
S2144004A068203000AC203000B020300065024000AC
S2144004B007000026040030000800300054203000BA
S2144004C0902030000502400070203000124A136829
S2144004D043F45C1343F0010313604832136813F08F
S2144004E0010FFBD00C4A136843F09B7343F48033F0
S2144004F013601032136843F00103136038321368F8
S21440050013F0080FFBD0054B1A681A60044A1368AC
S21440051013F0080FFBD0704720040E4030040E4006
S21440052068040E4030B101280ED0022816D00328A9
S2144005301ED07047134B1A6822F001021A601A68E0
S21440054042F002021A6070470E4B1A6822F001020F
S2144005501A601A6822F002021A607047094B1A683D
S21440056042F001021A601A6842F002021A607047AE
S214400570044B1A6842F001021A601A6822F002021E
S2144005801A60D6E73080004030B101280AD00228F1
S2144005900ED0032812D070470B4A136843F46023EA
S2144005A013607047084A136843F45023136070473B
S2144005B0054A136843F4302313607047024A1368B1
S2144005C043F4E0231360E6E70480004008B51B4A86
S2144005D0136843F400131360194B1A6842F0010283
S2144005E01A601A6822F002021A600020154B9847DB
S2144005F00020154B9847154B1A6842F400721A6053
S2144006001A6842F004021A6003F5582303F6D453DE
S2144006101A6842F400621A601A6842F480521A60FD
S2144006201A6842F400521A601A6842F480421A600D
S214400630074A136843F00103136008BD10040E40D8
S2144006400480004025054000890540003080004079
S21440065000800040084A136813F0020FFBD0074B97
S2144006601A6810431860044A136813F0010FFBD051
S214400670034B1B68704700BF108000400C80004052
S21440068008800040044A136813F0010FFBD0034B68
S2144006901868C0B2704700BF108000400880004015
S2144006A04FF400020C4B1A600C4A136843F40003E4
S2144006B013600B4B1A681A600A490A6842F0100227
S2144006C00A601A6842F480421A60074A136843F088
S2144006D001031360704700BF00E100E010040E40C5
S2144006E004000140240001400000014042F2107224
S2144006F0074B1A601C3B1A6842F001021A601A68DF
S21440070042F004021A60034A13688342FCD97047D9
S2144007101C0001404C04002070B50F4E0F4D761B58
S214400720B61018BF002405D0013455F8043B98474E
S214400730A642F9D10A4E0B4D761B00F0A7F8B6102C
S21440074018BF002406D0013455F8043B9847A6420B
S214400750F9D170BD70BD00BF9808400098084000B1
S214400760A008400098084000024B13B1024800F031
S21440077005B8704700000000890740000023014686
S2144007801A46184600F01EB838B50A4C0A4D641B87
S214400790A4100AD004F18043013B05EB8305013CDD
S2144007A055F804399847002CF9D1BDE8384000F098
S2144007B077B800BFB0084000AC084000704700BFA4
S2144007C0704700BF2DE9F8432C4D064628689846EA
S2144007D00F469146FFF7F2FF294B1C68D4F8483184
S2144007E0002B3ED05A681F2A1CDC02F1010E76B15F
S2144007F003EB82010124C1F88890D3F88801944025
S2144008002043022EC3F88801C1F8088123D0023263
S214400810C3F804E0286843F82270FFF7D1FF0020B1
S214400820BDE8F883174B0BB34FF4C870AFF30080A6
S2144008300346D8B1D4F848210260002141600A46F8
S214400840C4F848014FF0010EC0F88811C0F88C116A
S214400850002EDCD0CCE7D3F88C110C43C3F88C4187
S214400860D5E704F5A673C4F84831BBE72868FFF718
S214400870A7FF4FF0FF30BDE8F88300BF28040020F4
S214400880880840000000000000000020F8B500BFC7
S214400890F8BC08BC9E46704769074000F10040001F
S2144008A0F8B500BFF8BC08BC9E467047CD00400077
S2144008B000000000EC02002054030020BC0300208F
S2144008C000000000000000000000000000000000E3
S2144008D000000000000000000000000000000000D3
S2144008E000000000000000000000000000000000C3
S2144008F000000000000000000000000000000000B3
S21440090000000000000000000000000000000000A2
S2144009100000000000000000000000000000000092
S2144009200000000000000000000000000000000082
S2144009300000000000000000000000000000000072
S2144009400000000000000000000000000000000062
S2144009500000000000000000010000000000000051
S2144009600E33CDAB34126DE6ECDE05000B00000016
S2144009700000000000000000000000000000000032
S2144009800000000000000000000000000000000022
S2144009900000000000000000000000000000000012
S2144009A00000000000000000000000000000000002
S210400CD00000000000000000500400205F
S804400000BB
